{
  "_format": "hh-sol-artifact-1",
  "contractName": "TreasuryManager",
  "sourceName": "contracts/TreasuryManager.sol",
  "abi": [
    {
      "inputs": [
        {
          "internalType": "address",
          "name": "_targetToken",
          "type": "address"
        },
        {
          "internalType": "address",
          "name": "_treasury",
          "type": "address"
        }
      ],
      "stateMutability": "nonpayable",
      "type": "constructor"
    },
    {
      "anonymous": false,
      "inputs": [
        {
          "indexed": true,
          "internalType": "address",
          "name": "previousOwner",
          "type": "address"
        },
        {
          "indexed": true,
          "internalType": "address",
          "name": "newOwner",
          "type": "address"
        }
      ],
      "name": "OwnershipTransferred",
      "type": "event"
    },
    {
      "inputs": [],
      "name": "DIAMOND_AMOUNT",
      "outputs": [
        {
          "internalType": "uint256",
          "name": "",
          "type": "uint256"
        }
      ],
      "stateMutability": "view",
      "type": "function"
    },
    {
      "inputs": [],
      "name": "GOLD_AMOUNT",
      "outputs": [
        {
          "internalType": "uint256",
          "name": "",
          "type": "uint256"
        }
      ],
      "stateMutability": "view",
      "type": "function"
    },
    {
      "inputs": [],
      "name": "SILVER_AMOUNT",
      "outputs": [
        {
          "internalType": "uint256",
          "name": "",
          "type": "uint256"
        }
      ],
      "stateMutability": "view",
      "type": "function"
    },
    {
      "inputs": [
        {
          "internalType": "address",
          "name": "_addToken",
          "type": "address"
        }
      ],
      "name": "addWhitelist",
      "outputs": [
        {
          "internalType": "bool",
          "name": "",
          "type": "bool"
        }
      ],
      "stateMutability": "nonpayable",
      "type": "function"
    },
    {
      "inputs": [
        {
          "internalType": "address",
          "name": "",
          "type": "address"
        },
        {
          "internalType": "address",
          "name": "",
          "type": "address"
        }
      ],
      "name": "amountsOfTokenPerUser",
      "outputs": [
        {
          "internalType": "uint256",
          "name": "",
          "type": "uint256"
        }
      ],
      "stateMutability": "view",
      "type": "function"
    },
    {
      "inputs": [],
      "name": "claimReward",
      "outputs": [],
      "stateMutability": "nonpayable",
      "type": "function"
    },
    {
      "inputs": [],
      "name": "cycling_round",
      "outputs": [
        {
          "internalType": "uint256",
          "name": "",
          "type": "uint256"
        }
      ],
      "stateMutability": "view",
      "type": "function"
    },
    {
      "inputs": [
        {
          "internalType": "address",
          "name": "_delToken",
          "type": "address"
        }
      ],
      "name": "delWhitelist",
      "outputs": [
        {
          "internalType": "bool",
          "name": "",
          "type": "bool"
        }
      ],
      "stateMutability": "nonpayable",
      "type": "function"
    },
    {
      "inputs": [],
      "name": "depositETH",
      "outputs": [],
      "stateMutability": "payable",
      "type": "function"
    },
    {
      "inputs": [],
      "name": "depositEnabled",
      "outputs": [
        {
          "internalType": "bool",
          "name": "",
          "type": "bool"
        }
      ],
      "stateMutability": "view",
      "type": "function"
    },
    {
      "inputs": [
        {
          "internalType": "address",
          "name": "token",
          "type": "address"
        },
        {
          "internalType": "uint256",
          "name": "amount",
          "type": "uint256"
        }
      ],
      "name": "depositToken",
      "outputs": [],
      "stateMutability": "nonpayable",
      "type": "function"
    },
    {
      "inputs": [],
      "name": "diamond1_cnt",
      "outputs": [
        {
          "internalType": "uint256",
          "name": "",
          "type": "uint256"
        }
      ],
      "stateMutability": "view",
      "type": "function"
    },
    {
      "inputs": [],
      "name": "diamond1_reward",
      "outputs": [
        {
          "internalType": "uint256",
          "name": "",
          "type": "uint256"
        }
      ],
      "stateMutability": "view",
      "type": "function"
    },
    {
      "inputs": [],
      "name": "diamond2_cnt",
      "outputs": [
        {
          "internalType": "uint256",
          "name": "",
          "type": "uint256"
        }
      ],
      "stateMutability": "view",
      "type": "function"
    },
    {
      "inputs": [],
      "name": "diamond2_reward",
      "outputs": [
        {
          "internalType": "uint256",
          "name": "",
          "type": "uint256"
        }
      ],
      "stateMutability": "view",
      "type": "function"
    },
    {
      "inputs": [],
      "name": "dustingCycleOn",
      "outputs": [
        {
          "internalType": "bool",
          "name": "",
          "type": "bool"
        }
      ],
      "stateMutability": "view",
      "type": "function"
    },
    {
      "inputs": [],
      "name": "dustingEventOn",
      "outputs": [
        {
          "internalType": "bool",
          "name": "",
          "type": "bool"
        }
      ],
      "stateMutability": "view",
      "type": "function"
    },
    {
      "inputs": [],
      "name": "event_round",
      "outputs": [
        {
          "internalType": "uint256",
          "name": "",
          "type": "uint256"
        }
      ],
      "stateMutability": "view",
      "type": "function"
    },
    {
      "inputs": [],
      "name": "finishDustingCycle",
      "outputs": [],
      "stateMutability": "nonpayable",
      "type": "function"
    },
    {
      "inputs": [],
      "name": "finishDustingEvent",
      "outputs": [],
      "stateMutability": "nonpayable",
      "type": "function"
    },
    {
      "inputs": [
        {
          "internalType": "address",
          "name": "token",
          "type": "address"
        },
        {
          "internalType": "address",
          "name": "user",
          "type": "address"
        }
      ],
      "name": "getInjectedAmount",
      "outputs": [
        {
          "internalType": "uint256",
          "name": "",
          "type": "uint256"
        }
      ],
      "stateMutability": "view",
      "type": "function"
    },
    {
      "inputs": [
        {
          "internalType": "address",
          "name": "outputToken",
          "type": "address"
        },
        {
          "internalType": "uint256",
          "name": "outputAmount",
          "type": "uint256"
        },
        {
          "internalType": "address",
          "name": "anchorToken",
          "type": "address"
        }
      ],
      "name": "getQuantity",
      "outputs": [
        {
          "internalType": "uint256",
          "name": "",
          "type": "uint256"
        }
      ],
      "stateMutability": "view",
      "type": "function"
    },
    {
      "inputs": [
        {
          "internalType": "address",
          "name": "_contributor",
          "type": "address"
        }
      ],
      "name": "getRewardAmount",
      "outputs": [
        {
          "internalType": "uint256",
          "name": "",
          "type": "uint256"
        }
      ],
      "stateMutability": "view",
      "type": "function"
    },
    {
      "inputs": [
        {
          "internalType": "uint256",
          "name": "_index",
          "type": "uint256"
        }
      ],
      "name": "getWhitelist",
      "outputs": [
        {
          "internalType": "address",
          "name": "",
          "type": "address"
        }
      ],
      "stateMutability": "view",
      "type": "function"
    },
    {
      "inputs": [],
      "name": "getWhitelistLength",
      "outputs": [
        {
          "internalType": "uint256",
          "name": "",
          "type": "uint256"
        }
      ],
      "stateMutability": "view",
      "type": "function"
    },
    {
      "inputs": [],
      "name": "gold1_cnt",
      "outputs": [
        {
          "internalType": "uint256",
          "name": "",
          "type": "uint256"
        }
      ],
      "stateMutability": "view",
      "type": "function"
    },
    {
      "inputs": [],
      "name": "gold1_reward",
      "outputs": [
        {
          "internalType": "uint256",
          "name": "",
          "type": "uint256"
        }
      ],
      "stateMutability": "view",
      "type": "function"
    },
    {
      "inputs": [],
      "name": "gold2_cnt",
      "outputs": [
        {
          "internalType": "uint256",
          "name": "",
          "type": "uint256"
        }
      ],
      "stateMutability": "view",
      "type": "function"
    },
    {
      "inputs": [],
      "name": "gold2_reward",
      "outputs": [
        {
          "internalType": "uint256",
          "name": "",
          "type": "uint256"
        }
      ],
      "stateMutability": "view",
      "type": "function"
    },
    {
      "inputs": [
        {
          "internalType": "address",
          "name": "_user",
          "type": "address"
        }
      ],
      "name": "isTier1",
      "outputs": [
        {
          "internalType": "uint256",
          "name": "",
          "type": "uint256"
        }
      ],
      "stateMutability": "view",
      "type": "function"
    },
    {
      "inputs": [
        {
          "internalType": "address",
          "name": "_user",
          "type": "address"
        }
      ],
      "name": "isTier2",
      "outputs": [
        {
          "internalType": "uint256",
          "name": "",
          "type": "uint256"
        }
      ],
      "stateMutability": "view",
      "type": "function"
    },
    {
      "inputs": [
        {
          "internalType": "address",
          "name": "_token",
          "type": "address"
        }
      ],
      "name": "isWhitelist",
      "outputs": [
        {
          "internalType": "bool",
          "name": "",
          "type": "bool"
        }
      ],
      "stateMutability": "view",
      "type": "function"
    },
    {
      "inputs": [
        {
          "internalType": "address",
          "name": "",
          "type": "address"
        }
      ],
      "name": "lastWithdrawCycle",
      "outputs": [
        {
          "internalType": "uint256",
          "name": "",
          "type": "uint256"
        }
      ],
      "stateMutability": "view",
      "type": "function"
    },
    {
      "inputs": [],
      "name": "owner",
      "outputs": [
        {
          "internalType": "address",
          "name": "",
          "type": "address"
        }
      ],
      "stateMutability": "view",
      "type": "function"
    },
    {
      "inputs": [],
      "name": "renounceOwnership",
      "outputs": [],
      "stateMutability": "nonpayable",
      "type": "function"
    },
    {
      "inputs": [
        {
          "internalType": "address",
          "name": "_token",
          "type": "address"
        }
      ],
      "name": "setTargetToken",
      "outputs": [],
      "stateMutability": "nonpayable",
      "type": "function"
    },
    {
      "inputs": [
        {
          "internalType": "address[]",
          "name": "_silver",
          "type": "address[]"
        },
        {
          "internalType": "address[]",
          "name": "_gold",
          "type": "address[]"
        },
        {
          "internalType": "address[]",
          "name": "_diamond",
          "type": "address[]"
        }
      ],
      "name": "setTier2Members",
      "outputs": [],
      "stateMutability": "nonpayable",
      "type": "function"
    },
    {
      "inputs": [
        {
          "internalType": "address",
          "name": "_treasury",
          "type": "address"
        }
      ],
      "name": "setTreasuryAddress",
      "outputs": [],
      "stateMutability": "nonpayable",
      "type": "function"
    },
    {
      "inputs": [
        {
          "internalType": "address",
          "name": "",
          "type": "address"
        }
      ],
      "name": "sharePerUser",
      "outputs": [
        {
          "internalType": "uint256",
          "name": "",
          "type": "uint256"
        }
      ],
      "stateMutability": "view",
      "type": "function"
    },
    {
      "inputs": [],
      "name": "silver1_cnt",
      "outputs": [
        {
          "internalType": "uint256",
          "name": "",
          "type": "uint256"
        }
      ],
      "stateMutability": "view",
      "type": "function"
    },
    {
      "inputs": [],
      "name": "silver1_reward",
      "outputs": [
        {
          "internalType": "uint256",
          "name": "",
          "type": "uint256"
        }
      ],
      "stateMutability": "view",
      "type": "function"
    },
    {
      "inputs": [],
      "name": "silver2_cnt",
      "outputs": [
        {
          "internalType": "uint256",
          "name": "",
          "type": "uint256"
        }
      ],
      "stateMutability": "view",
      "type": "function"
    },
    {
      "inputs": [],
      "name": "silver2_ex_cnt",
      "outputs": [
        {
          "internalType": "uint256",
          "name": "",
          "type": "uint256"
        }
      ],
      "stateMutability": "view",
      "type": "function"
    },
    {
      "inputs": [],
      "name": "silver2_reward",
      "outputs": [
        {
          "internalType": "uint256",
          "name": "",
          "type": "uint256"
        }
      ],
      "stateMutability": "view",
      "type": "function"
    },
    {
      "inputs": [],
      "name": "startDustingCycle",
      "outputs": [],
      "stateMutability": "nonpayable",
      "type": "function"
    },
    {
      "inputs": [],
      "name": "startDustingEvent",
      "outputs": [],
      "stateMutability": "nonpayable",
      "type": "function"
    },
    {
      "inputs": [],
      "name": "targetToken",
      "outputs": [
        {
          "internalType": "address",
          "name": "",
          "type": "address"
        }
      ],
      "stateMutability": "view",
      "type": "function"
    },
    {
      "inputs": [
        {
          "internalType": "address",
          "name": "",
          "type": "address"
        }
      ],
      "name": "tier1",
      "outputs": [
        {
          "internalType": "uint256",
          "name": "",
          "type": "uint256"
        }
      ],
      "stateMutability": "view",
      "type": "function"
    },
    {
      "inputs": [
        {
          "internalType": "address",
          "name": "",
          "type": "address"
        }
      ],
      "name": "tier2",
      "outputs": [
        {
          "internalType": "uint256",
          "name": "",
          "type": "uint256"
        }
      ],
      "stateMutability": "view",
      "type": "function"
    },
    {
      "inputs": [
        {
          "internalType": "address",
          "name": "newOwner",
          "type": "address"
        }
      ],
      "name": "transferOwnership",
      "outputs": [],
      "stateMutability": "nonpayable",
      "type": "function"
    },
    {
      "inputs": [],
      "name": "treasury",
      "outputs": [
        {
          "internalType": "address",
          "name": "",
          "type": "address"
        }
      ],
      "stateMutability": "view",
      "type": "function"
    },
    {
      "inputs": [],
      "name": "uniswapV2Factory",
      "outputs": [
        {
          "internalType": "contract IUniswapV2Factory",
          "name": "",
          "type": "address"
        }
      ],
      "stateMutability": "view",
      "type": "function"
    },
    {
      "inputs": [],
      "name": "uniswapV2Router",
      "outputs": [
        {
          "internalType": "contract IUniswapV2Router02",
          "name": "",
          "type": "address"
        }
      ],
      "stateMutability": "view",
      "type": "function"
    },
    {
      "inputs": [],
      "name": "withdrawETH",
      "outputs": [],
      "stateMutability": "nonpayable",
      "type": "function"
    }
  ],
  "bytecode": "0x6080604052737a250d5630b4cf539739df2c5dacb4c659f2488d600760006101000a81548173ffffffffffffffffffffffffffffffffffffffff021916908373ffffffffffffffffffffffffffffffffffffffff160217905550735c69bee701ef814a2b6a3edd4b1652cb9cc5aa6f600860006101000a81548173ffffffffffffffffffffffffffffffffffffffff021916908373ffffffffffffffffffffffffffffffffffffffff160217905550348015620000bb57600080fd5b5060405162004551380380620045518339818101604052810190620000e19190620002c1565b62000101620000f56200018b60201b60201c565b6200019360201b60201c565b81600960006101000a81548173ffffffffffffffffffffffffffffffffffffffff021916908373ffffffffffffffffffffffffffffffffffffffff16021790555080600660006101000a81548173ffffffffffffffffffffffffffffffffffffffff021916908373ffffffffffffffffffffffffffffffffffffffff160217905550505062000308565b600033905090565b60008060009054906101000a900473ffffffffffffffffffffffffffffffffffffffff169050816000806101000a81548173ffffffffffffffffffffffffffffffffffffffff021916908373ffffffffffffffffffffffffffffffffffffffff1602179055508173ffffffffffffffffffffffffffffffffffffffff168173ffffffffffffffffffffffffffffffffffffffff167f8be0079c531659141344cd1fd0a4f28419497f9722a3daafe3b4186f6b6457e060405160405180910390a35050565b600080fd5b600073ffffffffffffffffffffffffffffffffffffffff82169050919050565b600062000289826200025c565b9050919050565b6200029b816200027c565b8114620002a757600080fd5b50565b600081519050620002bb8162000290565b92915050565b60008060408385031215620002db57620002da62000257565b5b6000620002eb85828601620002aa565b9250506020620002fe85828601620002aa565b9150509250929050565b61423980620003186000396000f3fe6080604052600436106103355760003560e01c80637af8ab84116101ab578063b2c8044b116100f7578063e086e5ec11610095578063ebbaa6bf1161006f578063ebbaa6bf14610be4578063f2fde38b14610c21578063f6326fb314610c4a578063f80f5dd514610c5457610335565b8063e086e5ec14610b77578063e181973114610b8e578063e5caff4214610bb957610335565b8063c683630d116100d1578063c683630d14610acd578063c7a9876514610b0a578063d2d5aec714610b21578063de3f473714610b4c57610335565b8063b2c8044b14610a60578063b88a802f14610a8b578063c439385c14610aa257610335565b806396db752a11610164578063a13202e91161013e578063a13202e914610990578063a609a501146109bb578063a7ef67f6146109e6578063a96a66d214610a2357610335565b806396db752a146108ff57806397ecfaab1461093c578063a01dccbd1461097957610335565b80637af8ab84146107eb57806381d3867a1461081657806384861c55146108415780638580a7611461087e57806389bd5908146108a95780638da5cb5b146108d457610335565b806343bae1ba116102855780635b3d8b42116102235780636605bfda116101fd5780636605bfda14610745578063715018a61461076e5780637621b3041461078557806378843a95146107ae57610335565b80635b3d8b42146106c457806361d027b3146106ef5780636407e71a1461071a57610335565b8063525b0c561161025f578063525b0c561461061857806353a5983f14610643578063572c8b3b1461066e57806359d0f7131461069957610335565b806343bae1ba1461058757806344a040f5146105c457806350a3cfdb1461060157610335565b80632eebe78e116102f2578063407e8128116102cc578063407e8128146104c957806340dd77ec146104f45780634197f6271461051f57806342af23c41461054a57610335565b80632eebe78e1461044a578063327107f714610475578063338b5dea146104a057610335565b80630ae8531c1461033a578063115f836c146103515780631694505e1461037c578063186c1cbf146103a75780631b66cb00146103e45780632e3a4def1461040d575b600080fd5b34801561034657600080fd5b5061034f610c91565b005b34801561035d57600080fd5b50610366610d38565b604051610373919061347e565b60405180910390f35b34801561038857600080fd5b50610391610d3e565b60405161039e9190613518565b60405180910390f35b3480156103b357600080fd5b506103ce60048036038101906103c9919061357b565b610d64565b6040516103db919061347e565b60405180910390f35b3480156103f057600080fd5b5061040b6004803603810190610406919061357b565b610d7c565b005b34801561041957600080fd5b50610434600480360381019061042f919061357b565b610dc8565b604051610441919061347e565b60405180910390f35b34801561045657600080fd5b5061045f610efe565b60405161046c91906135c3565b60405180910390f35b34801561048157600080fd5b5061048a610f11565b60405161049791906135ed565b60405180910390f35b3480156104ac57600080fd5b506104c760048036038101906104c29190613634565b610f37565b005b3480156104d557600080fd5b506104de6116db565b6040516104eb919061347e565b60405180910390f35b34801561050057600080fd5b506105096116e1565b604051610516919061347e565b60405180910390f35b34801561052b57600080fd5b506105346116e7565b604051610541919061347e565b60405180910390f35b34801561055657600080fd5b50610571600480360381019061056c919061357b565b6116ed565b60405161057e919061347e565b60405180910390f35b34801561059357600080fd5b506105ae60048036038101906105a9919061357b565b611705565b6040516105bb919061347e565b60405180910390f35b3480156105d057600080fd5b506105eb60048036038101906105e6919061357b565b61171d565b6040516105f8919061347e565b60405180910390f35b34801561060d57600080fd5b5061061661199b565b005b34801561062457600080fd5b5061062d6119c0565b60405161063a919061347e565b60405180910390f35b34801561064f57600080fd5b506106586119c8565b604051610665919061347e565b60405180910390f35b34801561067a57600080fd5b506106836119d0565b604051610690919061347e565b60405180910390f35b3480156106a557600080fd5b506106ae6119d6565b6040516106bb9190613695565b60405180910390f35b3480156106d057600080fd5b506106d96119fc565b6040516106e691906135c3565b60405180910390f35b3480156106fb57600080fd5b50610704611a0f565b60405161071191906135ed565b60405180910390f35b34801561072657600080fd5b5061072f611a35565b60405161073c919061347e565b60405180910390f35b34801561075157600080fd5b5061076c6004803603810190610767919061357b565b611a3b565b005b34801561077a57600080fd5b50610783611a87565b005b34801561079157600080fd5b506107ac60048036038101906107a79190613715565b611a9b565b005b3480156107ba57600080fd5b506107d560048036038101906107d0919061357b565b611ce8565b6040516107e2919061347e565b60405180910390f35b3480156107f757600080fd5b50610800611e1d565b60405161080d919061347e565b60405180910390f35b34801561082257600080fd5b5061082b611e23565b604051610838919061347e565b60405180910390f35b34801561084d57600080fd5b50610868600480360381019061086391906137c9565b611e2b565b604051610875919061347e565b60405180910390f35b34801561088a57600080fd5b50610893611f10565b6040516108a0919061347e565b60405180910390f35b3480156108b557600080fd5b506108be611f16565b6040516108cb919061347e565b60405180910390f35b3480156108e057600080fd5b506108e9611f1c565b6040516108f691906135ed565b60405180910390f35b34801561090b57600080fd5b5061092660048036038101906109219190613809565b611f45565b60405161093391906135ed565b60405180910390f35b34801561094857600080fd5b50610963600480360381019061095e919061357b565b611faf565b60405161097091906135c3565b60405180910390f35b34801561098557600080fd5b5061098e61203b565b005b34801561099c57600080fd5b506109a5612230565b6040516109b2919061347e565b60405180910390f35b3480156109c757600080fd5b506109d0612241565b6040516109dd919061347e565b60405180910390f35b3480156109f257600080fd5b50610a0d6004803603810190610a089190613836565b612247565b604051610a1a919061347e565b60405180910390f35b348015610a2f57600080fd5b50610a4a6004803603810190610a45919061357b565b612c17565b604051610a57919061347e565b60405180910390f35b348015610a6c57600080fd5b50610a75612c2f565b604051610a82919061347e565b60405180910390f35b348015610a9757600080fd5b50610aa0612c35565b005b348015610aae57600080fd5b50610ab7612e1f565b604051610ac4919061347e565b60405180910390f35b348015610ad957600080fd5b50610af46004803603810190610aef919061357b565b612e25565b604051610b0191906135c3565b60405180910390f35b348015610b1657600080fd5b50610b1f612e39565b005b348015610b2d57600080fd5b50610b36612e5e565b604051610b43919061347e565b60405180910390f35b348015610b5857600080fd5b50610b61612e64565b604051610b6e919061347e565b60405180910390f35b348015610b8357600080fd5b50610b8c612e6a565b005b348015610b9a57600080fd5b50610ba3612f21565b604051610bb0919061347e565b60405180910390f35b348015610bc557600080fd5b50610bce612f27565b604051610bdb91906135c3565b60405180910390f35b348015610bf057600080fd5b50610c0b6004803603810190610c0691906137c9565b612f3a565b604051610c18919061347e565b60405180910390f35b348015610c2d57600080fd5b50610c486004803603810190610c43919061357b565b612f5f565b005b610c52612fe3565b005b348015610c6057600080fd5b50610c7b6004803603810190610c76919061357b565b612fed565b604051610c8891906135c3565b60405180910390f35b610c99613079565b60001515601c60019054906101000a900460ff16151514610cef576040517f08c379a0000000000000000000000000000000000000000000000000000000008152600401610ce6906138e6565b60405180910390fd5b6001601c60006101000a81548160ff0219169083151502179055506000601781905560168190556015819055506001600a6000828254610d2f9190613935565b92505081905550565b600a5481565b600760009054906101000a900473ffffffffffffffffffffffffffffffffffffffff1681565b60046020528060005260406000206000915090505481565b610d84613079565b80600960006101000a81548173ffffffffffffffffffffffffffffffffffffffff021916908373ffffffffffffffffffffffffffffffffffffffff16021790555050565b600080600090506000600a600b54610de0919061398b565b9050600181610def9190613935565b600d60008673ffffffffffffffffffffffffffffffffffffffff1673ffffffffffffffffffffffffffffffffffffffff168152602001908152602001600020541415610e3e5760019150610ef4565b600281610e4b9190613935565b600d60008673ffffffffffffffffffffffffffffffffffffffff1673ffffffffffffffffffffffffffffffffffffffff168152602001908152602001600020541415610e9a5760029150610ef3565b600381610ea79190613935565b600d60008673ffffffffffffffffffffffffffffffffffffffff1673ffffffffffffffffffffffffffffffffffffffff168152602001908152602001600020541415610ef257600391505b5b5b8192505050919050565b600360009054906101000a900460ff1681565b600960009054906101000a900473ffffffffffffffffffffffffffffffffffffffff1681565b601c60009054906101000a900460ff16610f86576040517f08c379a0000000000000000000000000000000000000000000000000000000008152600401610f7d90613a31565b60405180910390fd5b8173ffffffffffffffffffffffffffffffffffffffff166323b872dd610faa6130f7565b600660009054906101000a900473ffffffffffffffffffffffffffffffffffffffff16846040518463ffffffff1660e01b8152600401610fec93929190613a51565b602060405180830381600087803b15801561100657600080fd5b505af115801561101a573d6000803e3d6000fd5b505050506040513d601f19601f8201168201806040525081019061103e9190613ab4565b50600061106e8383600960009054906101000a900473ffffffffffffffffffffffffffffffffffffffff16612247565b9050600a805461107e919061398b565b600d600061108a6130f7565b73ffffffffffffffffffffffffffffffffffffffff1673ffffffffffffffffffffffffffffffffffffffff1681526020019081526020016000205410156111a35780600460006110d86130f7565b73ffffffffffffffffffffffffffffffffffffffff1673ffffffffffffffffffffffffffffffffffffffff1681526020019081526020016000208190555081600560006111236130f7565b73ffffffffffffffffffffffffffffffffffffffff1673ffffffffffffffffffffffffffffffffffffffff16815260200190815260200160002060008573ffffffffffffffffffffffffffffffffffffffff1673ffffffffffffffffffffffffffffffffffffffff16815260200190815260200160002081905550611369565b6000600a600d60006111b36130f7565b73ffffffffffffffffffffffffffffffffffffffff1673ffffffffffffffffffffffffffffffffffffffff168152602001908152602001600020546111f89190613b10565b90506001811415611222576001601560008282546112169190613b41565b92505081905550611270565b600281141561124a5760016016600082825461123e9190613b41565b9250508190555061126f565b600381141561126e576001601760008282546112669190613b41565b925050819055505b5b5b816004600061127d6130f7565b73ffffffffffffffffffffffffffffffffffffffff1673ffffffffffffffffffffffffffffffffffffffff16815260200190815260200160002060008282546112c69190613935565b9250508190555082600560006112da6130f7565b73ffffffffffffffffffffffffffffffffffffffff1673ffffffffffffffffffffffffffffffffffffffff16815260200190815260200160002060008673ffffffffffffffffffffffffffffffffffffffff1673ffffffffffffffffffffffffffffffffffffffff16815260200190815260200160002060008282546113609190613935565b92505081905550505b633b9aca006004600061137a6130f7565b73ffffffffffffffffffffffffffffffffffffffff1673ffffffffffffffffffffffffffffffffffffffff1681526020019081526020016000205411156114ae57600b54600a6113ca919061398b565b60016113d69190613935565b600e60006113e26130f7565b73ffffffffffffffffffffffffffffffffffffffff1673ffffffffffffffffffffffffffffffffffffffff16815260200190815260200160002081905550600a54600a61142f919061398b565b600d600061143b6130f7565b73ffffffffffffffffffffffffffffffffffffffff1673ffffffffffffffffffffffffffffffffffffffff168152602001908152602001600020819055506019600081548092919061148c90613b75565b9190505550601860008154809291906114a490613b75565b91905055506116d6565b631dcd6500600460006114bf6130f7565b73ffffffffffffffffffffffffffffffffffffffff1673ffffffffffffffffffffffffffffffffffffffff16815260200190815260200160002054111561158257600a54600a61150f919061398b565b600361151b9190613935565b600d60006115276130f7565b73ffffffffffffffffffffffffffffffffffffffff1673ffffffffffffffffffffffffffffffffffffffff168152602001908152602001600020819055506017600081548092919061157890613b75565b91905055506116d5565b6305f5e100600460006115936130f7565b73ffffffffffffffffffffffffffffffffffffffff1673ffffffffffffffffffffffffffffffffffffffff16815260200190815260200160002054111561165657600a54600a6115e3919061398b565b60026115ef9190613935565b600d60006115fb6130f7565b73ffffffffffffffffffffffffffffffffffffffff1673ffffffffffffffffffffffffffffffffffffffff168152602001908152602001600020819055506016600081548092919061164c90613b75565b91905055506116d4565b600a54600a611665919061398b565b60016116719190613935565b600d600061167d6130f7565b73ffffffffffffffffffffffffffffffffffffffff1673ffffffffffffffffffffffffffffffffffffffff16815260200190815260200160002081905550601560008154809291906116ce90613b75565b91905055505b5b5b505050565b600f5481565b60135481565b600b5481565b600c6020528060005260406000206000915090505481565b600d6020528060005260406000206000915090505481565b600080600a805461172e919061398b565b90506000600a600b54611741919061398b565b905060006001836117529190613935565b600d60008773ffffffffffffffffffffffffffffffffffffffff1673ffffffffffffffffffffffffffffffffffffffff1681526020019081526020016000205414156117a257600f54905061185a565b6002836117af9190613935565b600d60008773ffffffffffffffffffffffffffffffffffffffff1673ffffffffffffffffffffffffffffffffffffffff1681526020019081526020016000205414156117ff576010549050611859565b60038361180c9190613935565b600d60008773ffffffffffffffffffffffffffffffffffffffff1673ffffffffffffffffffffffffffffffffffffffff1681526020019081526020016000205414156118585760115490505b5b5b6001826118679190613935565b600e60008773ffffffffffffffffffffffffffffffffffffffff1673ffffffffffffffffffffffffffffffffffffffff1681526020019081526020016000205414156118c257601254816118bb9190613935565b9050611990565b6002826118cf9190613935565b600e60008773ffffffffffffffffffffffffffffffffffffffff1673ffffffffffffffffffffffffffffffffffffffff16815260200190815260200160002054141561192a57601354816119239190613935565b905061198f565b6003826119379190613935565b600e60008773ffffffffffffffffffffffffffffffffffffffff1673ffffffffffffffffffffffffffffffffffffffff16815260200190815260200160002054141561198e576014548161198b9190613935565b90505b5b5b809350505050919050565b6119a3613079565b6000601c60016101000a81548160ff021916908315150217905550565b6305f5e10081565b633b9aca0081565b60195481565b600860009054906101000a900473ffffffffffffffffffffffffffffffffffffffff1681565b601c60019054906101000a900460ff1681565b600660009054906101000a900473ffffffffffffffffffffffffffffffffffffffff1681565b60125481565b611a43613079565b80600660006101000a81548173ffffffffffffffffffffffffffffffffffffffff021916908373ffffffffffffffffffffffffffffffffffffffff16021790555050565b611a8f613079565b611a9960006130ff565b565b611aa3613079565b6001600b6000828254611ab69190613935565b92505081905550600086869050905060005b81811015611b68576001600a600b54611ae1919061398b565b611aeb9190613935565b600e60008a8a85818110611b0257611b01613bbe565b5b9050602002016020810190611b17919061357b565b73ffffffffffffffffffffffffffffffffffffffff1673ffffffffffffffffffffffffffffffffffffffff168152602001908152602001600020819055508080611b6090613b75565b915050611ac8565b5080601954611b779190613935565b60188190555084849050905060005b81811015611c26576002600a600b54611b9f919061398b565b611ba99190613935565b600e6000888885818110611bc057611bbf613bbe565b5b9050602002016020810190611bd5919061357b565b73ffffffffffffffffffffffffffffffffffffffff1673ffffffffffffffffffffffffffffffffffffffff168152602001908152602001600020819055508080611c1e90613b75565b915050611b86565b5080601a8190555082829050905060005b81811015611cd7576003600a600b54611c50919061398b565b611c5a9190613935565b600e6000868685818110611c7157611c70613bbe565b5b9050602002016020810190611c86919061357b565b73ffffffffffffffffffffffffffffffffffffffff1673ffffffffffffffffffffffffffffffffffffffff168152602001908152602001600020819055508080611ccf90613b75565b915050611c37565b5080601b8190555050505050505050565b600080600090506000600a8054611cff919061398b565b9050600181611d0e9190613935565b600d60008673ffffffffffffffffffffffffffffffffffffffff1673ffffffffffffffffffffffffffffffffffffffff168152602001908152602001600020541415611d5d5760019150611e13565b600281611d6a9190613935565b600d60008673ffffffffffffffffffffffffffffffffffffffff1673ffffffffffffffffffffffffffffffffffffffff168152602001908152602001600020541415611db95760029150611e12565b600381611dc69190613935565b600d60008673ffffffffffffffffffffffffffffffffffffffff1673ffffffffffffffffffffffffffffffffffffffff168152602001908152602001600020541415611e1157600391505b5b5b8192505050919050565b60155481565b631dcd650081565b6000600a8054611e3b919061398b565b600d60008473ffffffffffffffffffffffffffffffffffffffff1673ffffffffffffffffffffffffffffffffffffffff168152602001908152602001600020541015611e8a5760009050611f0a565b600560008373ffffffffffffffffffffffffffffffffffffffff1673ffffffffffffffffffffffffffffffffffffffff16815260200190815260200160002060008473ffffffffffffffffffffffffffffffffffffffff1673ffffffffffffffffffffffffffffffffffffffff1681526020019081526020016000205490505b92915050565b60185481565b60175481565b60008060009054906101000a900473ffffffffffffffffffffffffffffffffffffffff16905090565b60006001611f51612230565b611f5b9190613b41565b821115611f9d576040517f08c379a0000000000000000000000000000000000000000000000000000000008152600401611f9490613c39565b60405180910390fd5b611fa86001836131c3565b9050919050565b6000611fb9613079565b600073ffffffffffffffffffffffffffffffffffffffff168273ffffffffffffffffffffffffffffffffffffffff161415612029576040517f08c379a000000000000000000000000000000000000000000000000000000000815260040161202090613ca5565b60405180910390fd5b6120346001836131dd565b9050919050565b612043613079565b60001515601c60009054906101000a900460ff16151514612099576040517f08c379a0000000000000000000000000000000000000000000000000000000008152600401612090906138e6565b60405180910390fd5b6001601c60016101000a81548160ff02191690831515021790555060004790506000601554116120ca5760006120f1565b6015546064600a836120dc919061398b565b6120e69190613cc5565b6120f09190613cc5565b5b600f8190555060006016541161210857600061212f565b601654606460148361211a919061398b565b6121249190613cc5565b61212e9190613cc5565b5b60108190555060006017541161214657600061216d565b6017546064602383612158919061398b565b6121629190613cc5565b61216c9190613cc5565b5b6011819055506000601854116121845760006121ab565b6018546064600583612196919061398b565b6121a09190613cc5565b6121aa9190613cc5565b5b6012819055506000601a54116121c25760006121e9565b601a546064600a836121d4919061398b565b6121de9190613cc5565b6121e89190613cc5565b5b6013819055506000601b5411612200576000612227565b601b546064601483612212919061398b565b61221c9190613cc5565b6122269190613cc5565b5b60148190555050565b600061223c600161320d565b905090565b60145481565b600080600090508273ffffffffffffffffffffffffffffffffffffffff168573ffffffffffffffffffffffffffffffffffffffff16141561228a57839050612c0c565b600073ffffffffffffffffffffffffffffffffffffffff16600860009054906101000a900473ffffffffffffffffffffffffffffffffffffffff1673ffffffffffffffffffffffffffffffffffffffff1663e6a4390587866040518363ffffffff1660e01b81526004016122ff929190613cf6565b60206040518083038186803b15801561231757600080fd5b505afa15801561232b573d6000803e3d6000fd5b505050506040513d601f19601f8201168201806040525081019061234f9190613d34565b73ffffffffffffffffffffffffffffffffffffffff16146125a0576000600860009054906101000a900473ffffffffffffffffffffffffffffffffffffffff1673ffffffffffffffffffffffffffffffffffffffff1663e6a4390587866040518363ffffffff1660e01b81526004016123c9929190613cf6565b60206040518083038186803b1580156123e157600080fd5b505afa1580156123f5573d6000803e3d6000fd5b505050506040513d601f19601f820116820180604052508101906124199190613d34565b90506000808273ffffffffffffffffffffffffffffffffffffffff16630902f1ac6040518163ffffffff1660e01b815260040160606040518083038186803b15801561246457600080fd5b505afa158015612478573d6000803e3d6000fd5b505050506040513d601f19601f8201168201806040525081019061249c9190613de3565b50915091506000808773ffffffffffffffffffffffffffffffffffffffff168a73ffffffffffffffffffffffffffffffffffffffff16106124de5782846124e1565b83835b91509150600760009054906101000a900473ffffffffffffffffffffffffffffffffffffffff1673ffffffffffffffffffffffffffffffffffffffff1663054d50d48a84846040518463ffffffff1660e01b815260040161254493929190613e67565b60206040518083038186803b15801561255c57600080fd5b505afa158015612570573d6000803e3d6000fd5b505050506040513d601f19601f820116820180604052508101906125949190613eb3565b95505050505050612c0b565b60006125aa612230565b905060005b81811015612c085760006125c282611f45565b9050600073ffffffffffffffffffffffffffffffffffffffff16600860009054906101000a900473ffffffffffffffffffffffffffffffffffffffff1673ffffffffffffffffffffffffffffffffffffffff1663e6a439058a846040518363ffffffff1660e01b8152600401612639929190613cf6565b60206040518083038186803b15801561265157600080fd5b505afa158015612665573d6000803e3d6000fd5b505050506040513d601f19601f820116820180604052508101906126899190613d34565b73ffffffffffffffffffffffffffffffffffffffff16141580156127865750600073ffffffffffffffffffffffffffffffffffffffff16600860009054906101000a900473ffffffffffffffffffffffffffffffffffffffff1673ffffffffffffffffffffffffffffffffffffffff1663e6a4390583896040518363ffffffff1660e01b815260040161271d929190613cf6565b60206040518083038186803b15801561273557600080fd5b505afa158015612749573d6000803e3d6000fd5b505050506040513d601f19601f8201168201806040525081019061276d9190613d34565b73ffffffffffffffffffffffffffffffffffffffff1614155b15612bf4576000600860009054906101000a900473ffffffffffffffffffffffffffffffffffffffff1673ffffffffffffffffffffffffffffffffffffffff1663e6a439058a846040518363ffffffff1660e01b81526004016127ea929190613cf6565b60206040518083038186803b15801561280257600080fd5b505afa158015612816573d6000803e3d6000fd5b505050506040513d601f19601f8201168201806040525081019061283a9190613d34565b90506000808273ffffffffffffffffffffffffffffffffffffffff16630902f1ac6040518163ffffffff1660e01b815260040160606040518083038186803b15801561288557600080fd5b505afa158015612899573d6000803e3d6000fd5b505050506040513d601f19601f820116820180604052508101906128bd9190613de3565b50915091506000808573ffffffffffffffffffffffffffffffffffffffff168d73ffffffffffffffffffffffffffffffffffffffff16106128ff578284612902565b83835b915091506000600760009054906101000a900473ffffffffffffffffffffffffffffffffffffffff1673ffffffffffffffffffffffffffffffffffffffff1663054d50d48e85856040518463ffffffff1660e01b815260040161296793929190613e67565b60206040518083038186803b15801561297f57600080fd5b505afa158015612993573d6000803e3d6000fd5b505050506040513d601f19601f820116820180604052508101906129b79190613eb3565b90506000600860009054906101000a900473ffffffffffffffffffffffffffffffffffffffff1673ffffffffffffffffffffffffffffffffffffffff1663e6a43905898f6040518363ffffffff1660e01b8152600401612a18929190613cf6565b60206040518083038186803b158015612a3057600080fd5b505afa158015612a44573d6000803e3d6000fd5b505050506040513d601f19601f82011682018060405250810190612a689190613d34565b90508073ffffffffffffffffffffffffffffffffffffffff16630902f1ac6040518163ffffffff1660e01b815260040160606040518083038186803b158015612ab057600080fd5b505afa158015612ac4573d6000803e3d6000fd5b505050506040513d601f19601f82011682018060405250810190612ae89190613de3565b5080965081975050508c73ffffffffffffffffffffffffffffffffffffffff168873ffffffffffffffffffffffffffffffffffffffff1610612b2b578486612b2e565b85855b8094508195505050600760009054906101000a900473ffffffffffffffffffffffffffffffffffffffff1673ffffffffffffffffffffffffffffffffffffffff1663054d50d48386866040518463ffffffff1660e01b8152600401612b9593929190613e67565b60206040518083038186803b158015612bad57600080fd5b505afa158015612bc1573d6000803e3d6000fd5b505050506040513d601f19601f82011682018060405250810190612be59190613eb3565b9a505050505050505050612c08565b508080612c0090613b75565b9150506125af565b50505b5b809150509392505050565b600e6020528060005260406000206000915090505481565b60115481565b601c60019054906101000a900460ff16612c84576040517f08c379a0000000000000000000000000000000000000000000000000000000008152600401612c7b90613f2c565b60405180910390fd5b600a54600c6000612c936130f7565b73ffffffffffffffffffffffffffffffffffffffff1673ffffffffffffffffffffffffffffffffffffffff1681526020019081526020016000205410612d0e576040517f08c379a0000000000000000000000000000000000000000000000000000000008152600401612d0590613f98565b60405180910390fd5b600a54600c6000612d1d6130f7565b73ffffffffffffffffffffffffffffffffffffffff1673ffffffffffffffffffffffffffffffffffffffff168152602001908152602001600020819055506000612d6d612d686130f7565b61171d565b905060003373ffffffffffffffffffffffffffffffffffffffff1682604051612d9590613fe9565b60006040518083038185875af1925050503d8060008114612dd2576040519150601f19603f3d011682016040523d82523d6000602084013e612dd7565b606091505b5050905080612e1b576040517f08c379a0000000000000000000000000000000000000000000000000000000008152600401612e129061404a565b60405180910390fd5b5050565b60105481565b6000612e32600183613222565b9050919050565b612e41613079565b6000601c60006101000a81548160ff021916908315150217905550565b60165481565b601a5481565b612e72613079565b60003373ffffffffffffffffffffffffffffffffffffffff1647604051612e9890613fe9565b60006040518083038185875af1925050503d8060008114612ed5576040519150601f19603f3d011682016040523d82523d6000602084013e612eda565b606091505b5050905080612f1e576040517f08c379a0000000000000000000000000000000000000000000000000000000008152600401612f15906140b6565b60405180910390fd5b50565b601b5481565b601c60009054906101000a900460ff1681565b6005602052816000526040600020602052806000526040600020600091509150505481565b612f67613079565b600073ffffffffffffffffffffffffffffffffffffffff168173ffffffffffffffffffffffffffffffffffffffff161415612fd7576040517f08c379a0000000000000000000000000000000000000000000000000000000008152600401612fce90614148565b60405180910390fd5b612fe0816130ff565b50565b612feb613079565b565b6000612ff7613079565b600073ffffffffffffffffffffffffffffffffffffffff168273ffffffffffffffffffffffffffffffffffffffff161415613067576040517f08c379a000000000000000000000000000000000000000000000000000000000815260040161305e90613ca5565b60405180910390fd5b613072600183613252565b9050919050565b6130816130f7565b73ffffffffffffffffffffffffffffffffffffffff1661309f611f1c565b73ffffffffffffffffffffffffffffffffffffffff16146130f5576040517f08c379a00000000000000000000000000000000000000000000000000000000081526004016130ec906141b4565b60405180910390fd5b565b600033905090565b60008060009054906101000a900473ffffffffffffffffffffffffffffffffffffffff169050816000806101000a81548173ffffffffffffffffffffffffffffffffffffffff021916908373ffffffffffffffffffffffffffffffffffffffff1602179055508173ffffffffffffffffffffffffffffffffffffffff168173ffffffffffffffffffffffffffffffffffffffff167f8be0079c531659141344cd1fd0a4f28419497f9722a3daafe3b4186f6b6457e060405160405180910390a35050565b60006131d28360000183613282565b60001c905092915050565b6000613205836000018373ffffffffffffffffffffffffffffffffffffffff1660001b6132ad565b905092915050565b600061321b826000016133c1565b9050919050565b600061324a836000018373ffffffffffffffffffffffffffffffffffffffff1660001b6133d2565b905092915050565b600061327a836000018373ffffffffffffffffffffffffffffffffffffffff1660001b6133f5565b905092915050565b600082600001828154811061329a57613299613bbe565b5b9060005260206000200154905092915050565b600080836001016000848152602001908152602001600020549050600081146133b55760006001826132df9190613b41565b90506000600186600001805490506132f79190613b41565b905081811461336657600086600001828154811061331857613317613bbe565b5b906000526020600020015490508087600001848154811061333c5761333b613bbe565b5b90600052602060002001819055508387600101600083815260200190815260200160002081905550505b8560000180548061337a576133796141d4565b5b6001900381819060005260206000200160009055905585600101600086815260200190815260200160002060009055600193505050506133bb565b60009150505b92915050565b600081600001805490509050919050565b600080836001016000848152602001908152602001600020541415905092915050565b600061340183836133d2565b61345a57826000018290806001815401808255809150506001900390600052602060002001600090919091909150558260000180549050836001016000848152602001908152602001600020819055506001905061345f565b600090505b92915050565b6000819050919050565b61347881613465565b82525050565b6000602082019050613493600083018461346f565b92915050565b600073ffffffffffffffffffffffffffffffffffffffff82169050919050565b6000819050919050565b60006134de6134d96134d484613499565b6134b9565b613499565b9050919050565b60006134f0826134c3565b9050919050565b6000613502826134e5565b9050919050565b613512816134f7565b82525050565b600060208201905061352d6000830184613509565b92915050565b600080fd5b600080fd5b600061354882613499565b9050919050565b6135588161353d565b811461356357600080fd5b50565b6000813590506135758161354f565b92915050565b60006020828403121561359157613590613533565b5b600061359f84828501613566565b91505092915050565b60008115159050919050565b6135bd816135a8565b82525050565b60006020820190506135d860008301846135b4565b92915050565b6135e78161353d565b82525050565b600060208201905061360260008301846135de565b92915050565b61361181613465565b811461361c57600080fd5b50565b60008135905061362e81613608565b92915050565b6000806040838503121561364b5761364a613533565b5b600061365985828601613566565b925050602061366a8582860161361f565b9150509250929050565b600061367f826134e5565b9050919050565b61368f81613674565b82525050565b60006020820190506136aa6000830184613686565b92915050565b600080fd5b600080fd5b600080fd5b60008083601f8401126136d5576136d46136b0565b5b8235905067ffffffffffffffff8111156136f2576136f16136b5565b5b60208301915083602082028301111561370e5761370d6136ba565b5b9250929050565b6000806000806000806060878903121561373257613731613533565b5b600087013567ffffffffffffffff8111156137505761374f613538565b5b61375c89828a016136bf565b9650965050602087013567ffffffffffffffff81111561377f5761377e613538565b5b61378b89828a016136bf565b9450945050604087013567ffffffffffffffff8111156137ae576137ad613538565b5b6137ba89828a016136bf565b92509250509295509295509295565b600080604083850312156137e0576137df613533565b5b60006137ee85828601613566565b92505060206137ff85828601613566565b9150509250929050565b60006020828403121561381f5761381e613533565b5b600061382d8482850161361f565b91505092915050565b60008060006060848603121561384f5761384e613533565b5b600061385d86828701613566565b935050602061386e8682870161361f565b925050604061387f86828701613566565b9150509250925092565b600082825260208201905092915050565b7f4576656e742073686f756c64206f666600000000000000000000000000000000600082015250565b60006138d0601083613889565b91506138db8261389a565b602082019050919050565b600060208201905081810360008301526138ff816138c3565b9050919050565b7f4e487b7100000000000000000000000000000000000000000000000000000000600052601160045260246000fd5b600061394082613465565b915061394b83613465565b9250827fffffffffffffffffffffffffffffffffffffffffffffffffffffffffffffffff038211156139805761397f613906565b5b828201905092915050565b600061399682613465565b91506139a183613465565b9250817fffffffffffffffffffffffffffffffffffffffffffffffffffffffffffffffff04831182151516156139da576139d9613906565b5b828202905092915050565b7f43616e206465706f736974206f6e206379636c65000000000000000000000000600082015250565b6000613a1b601483613889565b9150613a26826139e5565b602082019050919050565b60006020820190508181036000830152613a4a81613a0e565b9050919050565b6000606082019050613a6660008301866135de565b613a7360208301856135de565b613a80604083018461346f565b949350505050565b613a91816135a8565b8114613a9c57600080fd5b50565b600081519050613aae81613a88565b92915050565b600060208284031215613aca57613ac9613533565b5b6000613ad884828501613a9f565b91505092915050565b7f4e487b7100000000000000000000000000000000000000000000000000000000600052601260045260246000fd5b6000613b1b82613465565b9150613b2683613465565b925082613b3657613b35613ae1565b5b828206905092915050565b6000613b4c82613465565b9150613b5783613465565b925082821015613b6a57613b69613906565b5b828203905092915050565b6000613b8082613465565b91507fffffffffffffffffffffffffffffffffffffffffffffffffffffffffffffffff821415613bb357613bb2613906565b5b600182019050919050565b7f4e487b7100000000000000000000000000000000000000000000000000000000600052603260045260246000fd5b7f696e646578206f7574206f6620626f756e647300000000000000000000000000600082015250565b6000613c23601383613889565b9150613c2e82613bed565b602082019050919050565b60006020820190508181036000830152613c5281613c16565b9050919050565b7f746f6b656e20697320746865207a65726f206164647265737300000000000000600082015250565b6000613c8f601983613889565b9150613c9a82613c59565b602082019050919050565b60006020820190508181036000830152613cbe81613c82565b9050919050565b6000613cd082613465565b9150613cdb83613465565b925082613ceb57613cea613ae1565b5b828204905092915050565b6000604082019050613d0b60008301856135de565b613d1860208301846135de565b9392505050565b600081519050613d2e8161354f565b92915050565b600060208284031215613d4a57613d49613533565b5b6000613d5884828501613d1f565b91505092915050565b60006dffffffffffffffffffffffffffff82169050919050565b613d8481613d61565b8114613d8f57600080fd5b50565b600081519050613da181613d7b565b92915050565b600063ffffffff82169050919050565b613dc081613da7565b8114613dcb57600080fd5b50565b600081519050613ddd81613db7565b92915050565b600080600060608486031215613dfc57613dfb613533565b5b6000613e0a86828701613d92565b9350506020613e1b86828701613d92565b9250506040613e2c86828701613dce565b9150509250925092565b6000613e51613e4c613e4784613d61565b6134b9565b613465565b9050919050565b613e6181613e36565b82525050565b6000606082019050613e7c600083018661346f565b613e896020830185613e58565b613e966040830184613e58565b949350505050565b600081519050613ead81613608565b92915050565b600060208284031215613ec957613ec8613533565b5b6000613ed784828501613e9e565b91505092915050565b7f43616e206465706f736974206f6e206576656e74000000000000000000000000600082015250565b6000613f16601483613889565b9150613f2182613ee0565b602082019050919050565b60006020820190508181036000830152613f4581613f09565b9050919050565b7f416c726561647920436c61696d65640000000000000000000000000000000000600082015250565b6000613f82600f83613889565b9150613f8d82613f4c565b602082019050919050565b60006020820190508181036000830152613fb181613f75565b9050919050565b600081905092915050565b50565b6000613fd3600083613fb8565b9150613fde82613fc3565b600082019050919050565b6000613ff482613fc6565b9150819050919050565b7f4661696c656420746f2073656e642043524f0000000000000000000000000000600082015250565b6000614034601283613889565b915061403f82613ffe565b602082019050919050565b6000602082019050818103600083015261406381614027565b9050919050565b7f4661696c65640000000000000000000000000000000000000000000000000000600082015250565b60006140a0600683613889565b91506140ab8261406a565b602082019050919050565b600060208201905081810360008301526140cf81614093565b9050919050565b7f4f776e61626c653a206e6577206f776e657220697320746865207a65726f206160008201527f6464726573730000000000000000000000000000000000000000000000000000602082015250565b6000614132602683613889565b915061413d826140d6565b604082019050919050565b6000602082019050818103600083015261416181614125565b9050919050565b7f4f776e61626c653a2063616c6c6572206973206e6f7420746865206f776e6572600082015250565b600061419e602083613889565b91506141a982614168565b602082019050919050565b600060208201905081810360008301526141cd81614191565b9050919050565b7f4e487b7100000000000000000000000000000000000000000000000000000000600052603160045260246000fdfea26469706673582212208b9d80b69aff1ebb95fc8e8dc3c2fcff01ebb6d8d00c18921a4d0746c816b0a364736f6c63430008090033",
  "linkReferences": {},
  "deployedLinkReferences": {}
}